{
  "contractName": "VaccineVerification",
  "abi": [
    {
      "inputs": [],
      "payable": false,
      "stateMutability": "nonpayable",
      "type": "constructor"
    },
    {
      "constant": true,
      "inputs": [
        {
          "internalType": "address",
          "name": "",
          "type": "address"
        }
      ],
      "name": "hashes",
      "outputs": [
        {
          "internalType": "string",
          "name": "",
          "type": "string"
        }
      ],
      "payable": false,
      "stateMutability": "view",
      "type": "function"
    },
    {
      "constant": false,
      "inputs": [
        {
          "internalType": "string",
          "name": "_hash",
          "type": "string"
        },
        {
          "internalType": "address",
          "name": "user",
          "type": "address"
        }
      ],
      "name": "storeHash",
      "outputs": [],
      "payable": false,
      "stateMutability": "nonpayable",
      "type": "function"
    },
    {
      "constant": true,
      "inputs": [],
      "name": "getHash",
      "outputs": [
        {
          "internalType": "string",
          "name": "_hashes",
          "type": "string"
        }
      ],
      "payable": false,
      "stateMutability": "view",
      "type": "function"
    }
  ],
  "bytecode": "0x608060405234801561001057600080fd5b506103ce806100206000396000f3fe608060405234801561001057600080fd5b50600436106100415760003560e01c806308e3399f14610046578063175a07e5146100e1578063d13319c414610194575b600080fd5b61006c6004803603602081101561005c57600080fd5b50356001600160a01b031661019c565b6040805160208082528351818301528351919283929083019185019080838360005b838110156100a657818101518382015260200161008e565b50505050905090810190601f1680156100d35780820380516001836020036101000a031916815260200191505b509250505060405180910390f35b610192600480360360408110156100f757600080fd5b81019060208101813564010000000081111561011257600080fd5b82018360208201111561012457600080fd5b8035906020019184600183028401116401000000008311171561014657600080fd5b91908080601f016020809104026020016040519081016040528093929190818152602001838380828437600092019190915250929550505090356001600160a01b031691506102369050565b005b61006c610262565b600060208181529181526040908190208054825160026001831615610100026000190190921691909104601f81018590048502820185019093528281529290919083018282801561022e5780601f106102035761010080835404028352916020019161022e565b820191906000526020600020905b81548152906001019060200180831161021157829003601f168201915b505050505081565b6001600160a01b038116600090815260208181526040909120835161025d92850190610301565b505050565b336000908152602081815260409182902080548351601f60026000196101006001861615020190931692909204918201849004840281018401909452808452606093928301828280156102f65780601f106102cb576101008083540402835291602001916102f6565b820191906000526020600020905b8154815290600101906020018083116102d957829003601f168201915b505050505090505b90565b828054600181600116156101000203166002900490600052602060002090601f016020900481019282601f1061034257805160ff191683800117855561036f565b8280016001018555821561036f579182015b8281111561036f578251825591602001919060010190610354565b5061037b92915061037f565b5090565b6102fe91905b8082111561037b576000815560010161038556fea265627a7a72315820382734f61f6635789947f099dbdf7951b49b20a0f571b90508a3cfd5b06973b164736f6c63430005100032",
  "source": "pragma solidity >=0.4.22 <0.9.0;\r\n\r\ncontract VaccineVerification {\r\n\r\n    mapping(address => string) public hashes;\r\n\r\n    constructor() public {}\r\n\r\n    function storeHash(string memory _hash, address user) public {\r\n        hashes[user] = _hash;\r\n    }\r\n\r\n    function getHash() public view returns(string memory _hashes){\r\n//        require(msg.value == 1 ether, \"You must pay one ether to atccess the hash\");\r\n        return(hashes[msg.sender]);\r\n    }\r\n}\r\n",
  "sourcePath": "C:/Users/Rachel Li/Desktop/Vaccination/ethereum-vaccine-verification/contracts/VaccineVerification.sol",
  "compiler": {
    "name": "solc",
    "version": "0.5.16+commit.9c3226ce.Emscripten.clang"
  },
  "schemaVersion": "3.2.3",
  "updatedAt": "2021-04-09T15:22:07.162Z",
  "networkType": "ethereum",
  "devdoc": {
    "methods": {}
  },
  "userdoc": {
    "methods": {}
  }
}