{
  "contractName": "VaccineVerification",
  "abi": [
    {
      "inputs": [],
      "payable": false,
      "stateMutability": "nonpayable",
      "type": "constructor"
    },
    {
      "anonymous": false,
      "inputs": [
        {
          "indexed": false,
          "internalType": "string",
          "name": "returnedHash",
          "type": "string"
        }
      ],
      "name": "fileHash",
      "type": "event"
    },
    {
      "constant": true,
      "inputs": [
        {
          "internalType": "address",
          "name": "",
          "type": "address"
        }
      ],
      "name": "hashes",
      "outputs": [
        {
          "internalType": "string",
          "name": "",
          "type": "string"
        }
      ],
      "payable": false,
      "stateMutability": "view",
      "type": "function"
    },
    {
      "constant": false,
      "inputs": [
        {
          "internalType": "string",
          "name": "_hash",
          "type": "string"
        },
        {
          "internalType": "address",
          "name": "user",
          "type": "address"
        }
      ],
      "name": "storeHash",
      "outputs": [],
      "payable": false,
      "stateMutability": "nonpayable",
      "type": "function"
    },
    {
      "constant": false,
      "inputs": [],
      "name": "getHash",
      "outputs": [
        {
          "internalType": "string",
          "name": "userHash",
          "type": "string"
        }
      ],
      "payable": true,
      "stateMutability": "payable",
      "type": "function"
    }
  ],
  "bytecode": "0x608060405234801561001057600080fd5b50600080546001600160a01b031916331790556104c2806100326000396000f3fe6080604052600436106100345760003560e01c806308e3399f14610039578063175a07e5146100e1578063d13319c4146101a1575b600080fd5b34801561004557600080fd5b5061006c6004803603602081101561005c57600080fd5b50356001600160a01b03166101a9565b6040805160208082528351818301528351919283929083019185019080838360005b838110156100a657818101518382015260200161008e565b50505050905090810190601f1680156100d35780820380516001836020036101000a031916815260200191505b509250505060405180910390f35b3480156100ed57600080fd5b5061019f6004803603604081101561010457600080fd5b81019060208101813564010000000081111561011f57600080fd5b82018360208201111561013157600080fd5b8035906020019184600183028401116401000000008311171561015357600080fd5b91908080601f016020809104026020016040519081016040528093929190818152602001838380828437600092019190915250929550505090356001600160a01b031691506102439050565b005b61006c610288565b60016020818152600092835260409283902080548451600294821615610100026000190190911693909304601f810183900483028401830190945283835291929083018282801561023b5780601f106102105761010080835404028352916020019161023b565b820191906000526020600020905b81548152906001019060200180831161021e57829003601f168201915b505050505081565b6000546001600160a01b0316331461025a57600080fd5b6001600160a01b03811660009081526001602090815260409091208351610283928501906103c8565b505050565b606034670de0b6b3a7640000146102d05760405162461bcd60e51b815260040180806020018281038252602a815260200180610464602a913960400191505060405180910390fd5b600080546040516001600160a01b03909116913480156108fc02929091818181858888f1935050505015801561030a573d6000803e3d6000fd5b503360009081526001602081815260409283902083518281528154600294811615610100026000190116939093049183018290527f355052e710c09774931a814bf85e855afd1c0fd45babb2184cc7492e9fb04621939092918291820190849080156103b75780601f1061038c576101008083540402835291602001916103b7565b820191906000526020600020905b81548152906001019060200180831161039a57829003601f168201915b50509250505060405180910390a190565b828054600181600116156101000203166002900490600052602060002090601f016020900481019282601f1061040957805160ff1916838001178555610436565b82800160010185558215610436579182015b8281111561043657825182559160200191906001019061041b565b50610442929150610446565b5090565b61046091905b80821115610442576000815560010161044c565b9056fe596f75206d75737420706179206f6e6520657468657220746f206163636573732074686520686173682ea265627a7a7231582082335036fb632a9460e18606fc208db69239c0bd906db4d38f6b502c7d29374364736f6c63430005100032",
  "source": "pragma solidity >=0.4.22 <0.9.0;\r\n\r\ncontract VaccineVerification {\r\n\r\n    address payable owner;\r\n    mapping(address => string) public hashes;\r\n\r\n\r\n    event fileHash(\r\n        string returnedHash\r\n    ); \r\n\r\n\r\n    constructor() public {\r\n        owner=msg.sender;\r\n    }\r\n\r\n\r\n    function storeHash(string memory _hash, address user\r\n    ) public {\r\n        require(msg.sender == owner);\r\n        hashes[user] = _hash;\r\n    }\r\n\r\n    function getHash() public payable returns(string memory userHash){\r\n        require(msg.value == 1 ether, \"You must pay one ether to access the hash.\");\r\n        owner.transfer(msg.value);\r\n        emit fileHash(hashes[msg.sender]); \r\n    }\r\n\r\n}\r\n",
  "sourcePath": "C:/Users/natne/ethereum-vaccine-verification/contracts/VaccineVerification.sol",
  "compiler": {
    "name": "solc",
    "version": "0.5.16+commit.9c3226ce.Emscripten.clang"
  },
  "schemaVersion": "3.3.4",
  "updatedAt": "2021-04-14T13:18:53.639Z",
  "networkType": "ethereum",
  "devdoc": {
    "methods": {}
  },
  "userdoc": {
    "methods": {}
  }
}